:100000000A308A003C2A0000FF00030E8301A10091
:100010000A08A0008A010408A2007708A300780853
:10002000A4007908A5007A08A60003170D08031399
:10003000A70003170F080313A80003170C080313E6
:10004000A90003170E080313AA00831383128C3030
:100050008400801C2D288C184E2822088400230838
:10006000F7002408F8002508F9002608FA002708F8
:1000700003178D000313280803178F0003132908A3
:1000800003178C0003132A0803178E00031320089C
:100090008A00210E8300FF0E7F0E09008A110A12CA
:1000A0005128AB0A2B08503C03185B28AB01831680
:1000B0000510831205142C082B02031C63288316D9
:1000C0000510831205108C108A110A122D280C2499
:1000D0006F39611DA0123019641D25183232BA1211
:1000E00030196405C430F4303A1025183232AF129A
:1000F0003019E41732182518323200008C26653783
:10010000751050396937E334F0306C1D00008A18DF
:10011000A016A0206C3A653961392022613A61004D
:100120000A19A016A029653A6139A020EC30F236F0
:10013000E53900008C206C3A65396139A020EE3732
:100140003A008C206C3A65396139A026E5393A00CD
:100150008C206C3A653961392032E9303A008C20C4
:100160006C3A6539613920246F39611D00018C209A
:100170006C3A65396139A0266937753AEF393A002A
:100180008C206C3A6539E131E137A031EF368A29AC
:10019000F531E539F337A11021008C20EC30F2362F
:1001A000651025323A000A27E137A0216F37E6347F
:1001B000E73AF230E43721008C20EC30F23665105B
:1001C00025323A008A18A016A0206C3A65396139A8
:1001D00000010A19A01620226536653A613900002F
:1001E0008C206C3A65396510C837F23020142532FE
:1001F000291D00018C206C3A65396510CD34EE3A2A
:10020000F43773142532291D00018C20EC30F236AE
:10021000E510A1108A20EC34ED326E3A6137E437F4
:100220002E172E00DE3084008313000803192529C1
:100230000630F800F701F70B1B29F80B1A297B3061
:10024000F700F70B2129800B182908008316651881
:100250002D29831208122F2983168312081683165C
:100260000812E51837298312881239298316831258
:1002700088168316881265194129831208134329A9
:1002800083168312081783160813E5194B29831266
:1002900088134D298316831288178316881300004C
:1002A00083120814831608100230F700F70B562942
:1002B00059290000831208108316081083120800C1
:1002C0008316E601081600308312081A01308316DF
:1002D000E604881600308312881A0130F7000310F4
:1002E000F70D77088316E604081700308312081B01
:1002F0000130F700F70DF70DFC30F705770883168E
:10030000E604881700308312881B0130F700F70DD0
:10031000F70DF70DF830F70577088316E604660841
:10032000F800831208008316081088100811831241
:1003300088108316881008168816081788178312E5
:10034000081583160811000083120814831608107C
:1003500000008312602178088316E50083120810DC
:100360008316081000008312081483160810B82999
:10037000B92900008312602178088316E4008312F3
:100380000810831608100812881208138813650EC7
:10039000F700F030F70577086404F8007808E40007
:1003A000E41B9B29E208031DD92983128810DB294D
:1003B0008316831288148316881000008312081194
:1003C0008316081100008312081083160810630EAC
:1003D000E4000F30E4056408E5008312262183164B
:1003E00063080F39E400E500831226210800283055
:1003F0008316D6000C30D7000130D8000630D90063
:100400008312081083160810831288108316881030
:100410008312081183160811081288120813881312
:100420000810881008110F30DE00831212210130ED
:100430008316D5005508033C031C2A2A0330E50027
:100440008312262105308316DE00831212218316C3
:10045000D50A1A2A0230E5008312262105308316B8
:10046000DE00831212218316D5015508033C031CBC
:10047000472AD6305507840083130008DA00E201CA
:100480005A08E300831293218316D50A352A831272
:100490008A150A12B12A0830F8000430F700F70B69
:1004A0004F2A8711AD112D08831687000330F700FE
:1004B000F70B582ADD0D83120712031C652A2D162F
:1004C0002D0883168700692A83122D122D088316A2
:1004D000870000008312AD152D0883168700831254
:1004E000871D702AF80B4D2A0430F700F70B762A87
:1004F0008711AD112D0883168700000083122D1679
:100500002D08831687000330F700F70B852A033088
:10051000F700F70B892A8312AD152D088316870083
:100520008312871D912AF8010330F700F70B962AF2
:10053000071A78148711AD112D08831687008312CE
:1005400007122D122D088316870083120800083029
:100550008316DC007708DD0083122D162D08831624
:1005600087000330F700F70BB32A8312AD152D086F
:10057000831687008312871DBB2A071A0314071EE0
:100580000310F80D0430F700F70BC42AAD112D0845
:1005900083168700831287118316DC0BAC2A831223
:1005A0002D162D08831687000330F700F70BD62A87
:1005B0008312071283165D080319E32A83122D1292
:1005C0002D088316870000008312AD152D088316B1
:1005D00087008312871DEA2A0430F700F70BEE2A02
:1005E0008711AD112D08831687000330F700F70B34
:1005F000F72A831207122D122D0883168700831203
:1006000008000B138B138B1B022B2D162D08831642
:1006100087000430F700F70B0B2B8312AD152D0864
:10062000831687000330F700F70B142B8312071291
:100630002D122D08831687000430F700F70B1E2BB0
:1006400083128711AD112D0883168700D030DD008D
:1006500083124B2283165908DD0083124B222D167C
:100660002D08831687000430F700F70B352B831213
:10067000AD152D08831687000330F700F70B3E2BCE
:100680008312871D412B07122D122D088316870018
:100690000430F700F70B4A2B83128711AD112D0898
:1006A00083168700D130DD0083124B22F701A72289
:1006B00078088316DA0083122D122D08831687001E
:1006C00000008312AD152D08831687008312871D45
:1006D000672B0430F700F70B6B2B6E2B00002D16E9
:1006E0002D08831687000430F700F70B752B5A0886
:1006F000F800832BC03083128B0464308316DE0035
:100700008312122183168312080001308316D7004A
:1007100057081A3C031CC12B01305702F700031085
:10072000F70D7708083ED800D90083120123780816
:100730008316D50001305702F7000310F70D770834
:10074000093ED800D9008312012378088316D60009
:1007500001305702F7000310F70D7708A03E840020
:1007600083135508800001305702F7000310F70D7E
:100770007708013EA03E8400831356088000D70A04
:10078000882B8312080083165A08DB000310DB0C49
:100790007830DB055B0CF700F70C3F30F705770886
:1007A0005B07DC005A080F395C07F8008312080069
:1007B00083165C08DD00DE015D08093C0318E52BAB
:1007C0000A30DD021030DE07E82B5D08DE07E92B7A
:1007D000DC2B5E08F800831208000B138B138B1BB5
:1007E000EE2B8316DB133F30D90583122D162D080F
:1007F000831687000430F700F70BFC2B8312AD152E
:100800002D08831687000330F700F70B052C8312A1
:1008100007122D122D08831687000430F700F70BFE
:100820000F2C83128711AD112D0883168700D0304D
:10083000DD0083124B228316DD0183124B228316C7
:100840005B08DC008312D82378088316DC00DD0007
:1008500083124B2283165A08DC008312D8237808AF
:100860008316DC00DD0083124B2283165908DC005E
:100870008312D82378088316DC00DD0083124B2214
:1008800083165808DC008312D82378088316DC000E
:10089000DD0083124B2283165508DC008312D82317
:1008A00078088316DC00DD0083124B22831656087D
:1008B000DC008312D82378088316DC00DD00831265
:1008C0004B2283165708DC008312D823780883163E
:1008D000DC00DD0083124B222D122D0883168700C9
:1008E00000008312AD152D08831687008312871D23
:1008F000772C0430F700F70B7B2C7E2C00002D1694
:100900002D08831687000430F700F70B852CC030C4
:1009100083128B0464308316DE00831212218A1541
:100920000A120E2C0B138B138B1B932C2D162D08D8
:10093000831687000430F700F70B9C2C8312AD154B
:100940002D08831687000330F700F70BA52C8312C0
:1009500007122D122D08831687000430F700F70BBD
:10096000AF2C83128711AD112D0883168700D0306C
:10097000DD0083124B2283165708DD0083124B22C1
:1009800083165808DD0083124B222D122D08831682
:10099000870000008312AD152D088316870083128F
:1009A000871DD02C0430F700F70BD42CD72C000077
:1009B0002D162D08831687000430F700F70BDE2C68
:1009C000C03083128B0464308316DE008312122140
:1009D000080083165F0BED2CF02C4030E000F12C6A
:1009E000E00101305E02E00760088038E100E201CA
:1009F0006108E30083129321080083165D08073A1B
:100A0000831203190D2D0B3A0319142D063A0319FD
:100A1000202D023A0319282D2F2D01308316DE00D8
:100A2000DF008312E924362D8316E2010130E30052
:100A30008312932102308316DE0083121221362D99
:100A400001308316DE000230DF008312E924362DE8
:100A50008316E2011030E30083129321362D01301A
:100A60008316E2005D08E3008312932108000B085F
:100A70008316D80083128B13831603178C170C145C
:100A8000000000000313D81F482D83128B17831614
:100A90000318812D831203170C087F398316031363
:100AA000D800831203170D0883160313D90083128D
:100AB00003170F0883160313DA005808DD008312AA
:100AC000FD2483165908831203178D008316031320
:100AD0005A08831203178F0003130B088316DB00D9
:100AE00083128B13831603178C170C14000000005D
:100AF0000313DB1F7E2D83128B178316D70B812DDB
:100B0000AF2D831203170C0D0E0D7F3983160313BF
:100B1000D800831203170D0883160313D90083121C
:100B200003170F0883160313DA005808DD00831239
:100B3000FD2483165908831203178D0083160313AF
:100B40005A08831203178F008D0A03198F0A0310A6
:100B500083160313D70BAD2DAF2D8312372D8312C0
:100B6000080083165E08F8015D020318BA2D5D08BF
:100B7000F700C62DF7010830DF00DD0DF70D5E0828
:100B800077020318F700F80DDF0BBD2D8312080064
:100B900020308316581E3030D9005708F700D71F71
:100BA000D92DF709F70A7708D7002D30D900D817C3
:100BB00058145708DD006430DE008312B125770831
:100BC0008316D70030307807DA005708DD000A3086
:100BD000DE008312B125303077078316DC00303019
:100BE0007807DB005908F70030305A020319FC2D52
:100BF000D814D81B5815102E5819102E5908DA0081
:100C0000D818072E30305B0203190A2E5814D81B4F
:100C1000D814102E031D5814031D102E5A08DB0083
:100C20005819172ED8181C2E5818212E262E590860
:100C3000DD008312FD2483165A08DD008312FD2493
:100C400083165B08DD008312FD2483165C08DD003B
:100C50008312FD2408000B138B138B1B2C2E2D16D7
:100C60002D08831687000430F700F70B352E83120A
:100C7000AD152D08831687000330F700F70B3E2EC5
:100C8000831207122D122D08831687000430F700F7
:100C9000F70B482E83128711AD112D08831687009C
:100CA000D030DD0083124B2203308316DD00831227
:100CB0004B222D162D08831687000430F700F70B02
:100CC0005F2E8312AD152D08831687000330F700C1
:100CD000F70B682E8312871D6B2E07122D122D081D
:100CE000831687000430F700F70B742E83128711E8
:100CF000AD112D0883168700D130DD0083124B2201
:100D00000130F700A72278087F398316D500DA0072
:100D10008312C3237808D9000130F700A72278088E
:100D20003F398316D500DA008312C3237808D60032
:100D30000130F700A72278081F398316D500DA00A2
:100D40008312C3237808D700F701A72278088316F7
:100D5000D500DA008312C3237808D8002D122D089D
:100D60008316870000008312AD152D0883168700B7
:100D70008312871DB92E0430F700F70BBD2EC02E4D
:100D800000002D162D08831687000430F700F70B9E
:100D9000C72EC03083128B0464308316DE008312AA
:100DA0001221673003178D0000308F0003100730C9
:100DB00083160313D7008312372555088316D700EF
:100DC0000130D8008312C8253A308316DD00831223
:100DD000FD2454088316D7000130D8008312C8259B
:100DE0003A308316DD008312FD2453088316D700A2
:100DF0000130D8008312C825713003178D000030F0
:100E00008F000314073083160313D700831237258E
:100E100056088316D7000130D8008312C8252F301A
:100E20008316DD008312FD2457088316D700013096
:100E3000D8008312C8252F308316DD008312FD24CD
:100E400032308316DD008312FD2430308316DD003E
:100E50008312FD2458088316D7000130D80083126E
:100E6000C8258A150A12A92C0B088316D7008312ED
:100E70008B13831603178C170C1400000000031348
:100E8000D71F452F83128B178316831203170C0865
:100E90007F390319A62F83160313D7008312031774
:100EA0000D0883160313D800831203170F08831647
:100EB0000313D9005708DD008312FD248316580858
:100EC000831203178D008316031359088312031727
:100ED0008F0003130B088316DA0083128B1383161B
:100EE00003178C170C14000000000313DA1F7B2F6C
:100EF00083128B178316831203170C0D0E0D7F3987
:100F00000319A62F83160313D700831203170D08A6
:100F100083160313D800831203170F0883160313D5
:100F2000D9005708DD008312FD2483165808831268
:100F300003178D00831603135908831203178F00BC
:100F40008D0A03198F0A0313342F031703130800A4
:100F50000230E2007E3003178D0000308F00031353
:100F60003427610BBB2F873003178D0000308F00B3
:100F700003133427C62F6108023C031DC62F90308F
:100F800003178D0000308F00031334278A150A12CF
:100F9000A92C3230E2009A3003178D0000308F0008
:100FA000031334270A308316DD008312FD24323008
:100FB0008316DD008312FD2430308316DD0083129A
:100FC000FD2461088316D7000130D8008312C8259C
:060FD0008A150A12A92C8B
:101000000C30E200A13003178D0000308F008A11F0
:10101000031334278A150A308316DD008A118312E0
:10102000FD248A1561088316D7000130D8008A1183
:101030008312C8258A158A150A12A92C1F30E200CE
:10104000A83003178D0000308F008A110313342756
:101050008A150A308316DD008A118312FD248A1551
:1010600061088316D7000130D8008A118312C82581
:101070008A158A150A12A92C1830E200AF3003171E
:101080008D0000308F008A11031334278A15013038
:1010900061028316D5000A30DD008A118312FD2417
:1010A0008A1583165508D7000130D8008A1183129B
:1010B000C8258A158A150A12A92C3C30E200B730DF
:1010C00003178D0000308F008A11031334278A150F
:1010D000013061028316D5000A30DD008A118312C7
:1010E000FD248A1583165508D7000130D8008A11CF
:1010F0008312C8258A158A150A12A92CC030031735
:101100008D0000308F008A11031334278A150630B2
:101110008316D500FA30DE008A11831212218A1557
:101120008316D50B8A288312E0010130E1008A156D
:101130000A12A92C20308316581E3030D9005708C7
:10114000F700D71FAB28F709F70A7708D7002D302B
:10115000D900D81758145708DD006430DE008A1112
:101160008312B1258A1577088316D70030307807A7
:10117000DA005708DD000A30DE008A118312B1253B
:101180008A15303077078316DC0030307807DB00B3
:101190005908F70030305A020319D228D814D81B46
:1011A0005815E6285908DA002030D90030305B02A3
:1011B0000319DE285814D81BD814E628031D581428
:1011C000031DE6285A08DB002030DA005819ED2804
:1011D000D818F4285818FB2802295908DD008A116C
:1011E0008312FD248A1583165A08DD008A118312A2
:1011F000FD248A1583165B08DD008A118312FD2405
:101200008A1583165C08DD008A118312FD248A1575
:1012100008008316D501D6011A308312E200CD30C2
:1012200003178D0000308F0003100830831603135E
:10123000D7008A11831237258A1561088316D700D3
:101240001830D80083129A203A308316DD008A11B4
:101250008312FD248A1501306102F7000310F70D97
:101260007708A03E8400831300088316D500013060
:1012700083126102F7000310F70D7708013EA03ECC
:101280008400831300088316D6005508FF3C031D15
:101290005529D330831203178D0000308F008A1137
:1012A000031334278A15892983160A30DD008A1131
:1012B0008312FD248A1583165508D7000130D80003
:1012C0008A118312C8258A153A308316DD008A11E7
:1012D0008312FD248A1583165608D7000130D800E2
:1012E0008A118312C8258A153A308316DD008A11C7
:1012F0008312FD248A1530308316DD008A11831293
:10130000FD248A1530308316DD008A118312FD24F6
:101310008A158A150A12A92C0230E200DC30031764
:101320008D0000308F000310083083160313D700A0
:101330008A11831237258A1563088316D70018305F
:10134000D80083129A203A308316DD008A11831266
:10135000FD248A15610BB629E23003178D00003099
:101360008F008A11031334278A15C3296108023CB0
:10137000031DC329E93003178D0000308F008A1147
:10138000031334278A158A150A12A92C1830E20093
:10139000F03003178D0000308F0003100E308316DD
:1013A0000313D7008A11831237258A156308831621
:1013B000D7001830D80083129A2029308316DD0018
:1013C0008A118312FD248A153A308316DD008A11B2
:1013D0008312FD248A15013061028316D5000A307C
:1013E000DD008A118312FD248A1583165508D70063
:1013F0000130D8008A118312C8258A158A150A126D
:10140000A92C3C30E200FA3003178D0000308F0029
:101410000310103083160313D7008A118312372567
:101420008A1563088316D7001830D80083129A20D3
:1014300029308316DD008A118312FD248A153A3083
:101440008316DD008A118312FD248A1501306102A2
:101450008316D5000A30DD008A118312FD248A1517
:1014600083165508D7000130D8008A118312C82589
:101470008A158A150A12A92C03081F398300AB01AB
:101480000430AC00FF30AD00D201D1011130D300E7
:10149000D400D500D6000730D7001130D800063070
:1014A000D9001130DA00DB00DC00DD000730DE009F
:1014B0001130DF00E0010130E1000230E2000130D4
:1014C000E300E401E501E601E70183161F149F1420
:1014D0001F159F11831353308312AE004130AF00AC
:1014E0004230B000B101B2014430B3004F30B4001B
:1014F0004D30B500B601B7015330B8004530B900E2
:101500004730BA00BB01BC015430BD004530BE00BD
:101510005230BF00C001C1015130C2005530C3007C
:101520004130C400C501C6015130C7005530C80064
:101530004930C900CA01CB015330CC004530CD0041
:101540005830CE00CF01D0010030F80006389200AC
:101550004E30831692008C14C03083128B048A1193
:10156000F7298A158A1185238A150B138B138B1B78
:10157000B62A2D162D08831687000430F700F70BC6
:10158000BF2A8312AD152D08831687000330F7009C
:10159000F70BC82A831207122D122D088316870015
:1015A0000430F700F70BD22A83128711AD112D08F2
:1015B00083168700D030DD008A1183124B228A15F2
:1015C0008316DD018A1183124B228A152D162D08F0
:1015D000831687000430F700F70BEC2A8312AD1551
:1015E0002D08831687000330F700F70BF52A8312C6
:1015F000871DF82A07122D122D0883168700043044
:10160000F700F70B012B83128711AD112D088316FC
:101610008700D130DD008A1183124B228A150130F8
:10162000F7008A11A7228A1578087F398316D5001A
:10163000DA008A118312C3238A157808D300013097
:10164000F7008A11A7228A1578087F398316D500FA
:10165000DA008A118312C3238A157808D400F701AF
:101660008A11A7228A1578083F398316D500DA0037
:101670008A118312C3238A157808D5002D122D08EC
:101680008316870000008312AD152D08831687008E
:101690008312871D492B0430F700F70B4D2B502B7D
:1016A00000002D162D08831687000430F700F70B75
:1016B000572BC03083128B0464308316DE008A11EE
:1016C000831212218A15831685140030831285181F
:1016D0000130640203197E2BE408031D782BE00817
:1016E000031D752B0130E000782BE0010130E10093
:1016F000831685148312E4018518E40A8316051500
:10170000003083120519013066020319942BE60894
:10171000031D8E2BE10B8E2B6208E100831605154D
:101720008312E6010519E60A831685150030831237
:101730008519013065020319AD2BE508031DA72BA0
:10174000E10A610862020318A72B0130E100831649
:1017500085158312E5018519E50A83160516003003
:101760008312051A013067020319862CE708031D4E
:10177000802C01306002F53E0318802C0B3EEE2CCD
:10178000610BC72B0230E0005808E100CF2B610845
:10179000023C031DCF2B0830E0000130E100802C1B
:1017A0006108DF000330E0005708E100802C610889
:1017B000DE000430E0005608E100802C6108DD0006
:1017C0000530E0005508E100802C01306102DC00AA
:1017D0000630E0005408E100802C01306102DB009B
:1017E0005D088316D50083125E088316D600831227
:1017F0005F088316D700831259088316D800831216
:101800005C088316D90083125B088316DA00831202
:101810005A088316DB008A118312ED2B8A150730D4
:10182000E000802C6108E3000930E0000130E100B5
:10183000802C610B202C0A30E0000130E100492CA3
:101840006108023C031D492C01306302F7000310BC
:10185000F70D7708083E8316D500D700FF30D80073
:101860008A11831292248A1501306302F700031053
:10187000F70D7708093E8316D500D700FF30D80052
:101880008A11831292248A150730E0008A11852379
:101890008A15802C01306302F7000310F70D7708DA
:1018A000083E8316D5000130831261028316D600EC
:1018B0005508D7005608D8008A11831292248A1539
:1018C0000B30E0000130E100802C01306302F700B2
:1018D0000310F70D7708093E8316D50001308312F7
:1018E00061028316D6005508D7005608D8008A1121
:1018F000831292248A150730E0008A1185238A1505
:10190000831605168312E701051AE70A6008F43EFC
:101910000318A92C0C3EFD2C8A112B2E8A15A92CFC
:101920008A11A82F8A15A92C8A11C92F8A15A92CCA
:101930000028A92C1E28A92C3C28A92C5D28A92CFC
:101940007E28A92C0929A92C8C29A92CC629A92CC7
:10195000012A8316D4015408193C031CE62C0310F9
:10196000540DA03E84008313831255080002031D0A
:10197000E32C03108316540D013EA03E8400831314
:10198000831254080002031DE32C530BE32CFF3099
:10199000E000053003178D0001308F008A1103131A
:1019A00034278A150830AC008316D500FA30DE00E3
:1019B0008A11831212218A158316D50BD62C043076
:1019C0008312AC00E0018316D40AAB2C6430DE0035
:1019D0008A11831212218A15B52A63000A108A100F
:1019E0000A158207C02BD02BD72BDE2BE52BED2B36
:1019F000802C122C192C4A2C652C0A148A100A15DA
:101A000082078C2C902C942C982C9A2C9C2C9E2CFD
:0A1A1000A02CA22CA42CA62CA82CBC
:02400E00323F3F
:00000001FF
;PIC16F877
;CRC=2DE3  CREATED="04-nov-17 16:22"
